:040000008A11112828
:10000800FE00030EF2000408F3000A08F40083124D
:1000180003137F08F5008A11312A8A111328F80181
:10002800BD0183018A1118288312031385018601F3
:10003800E330831603138500F630860062308F00A4
:1000480081111730831203178500831203131013CD
:100058009012101290119010101483160313980127
:1000680090308312031398001930831603139900F4
:1000780001309B00C930831203139F0083160313BA
:100088009F018C018C168B010B178B17831203139E
:1000980005110030F805E030A0002E30A100E03056
:1000A800A2002E30A300E030A4002E30A500E030DE
:1000B800A6002E30A700E030A8002E30A900E030BE
:1000C800AA002E30AB00E030AC002E30AD00E0309E
:1000D800AE002E30AF001F151F1970281E03FF3AFF
:1000E800FF3EB0003008BC0017300F027130031912
:1000F8000E02031C832832303C02031C8A28EA3093
:100108000F02613003190E02031CDF298E018F01D3
:1001180086110512851106100130B0003008BD07A0
:1001280004303D0203189C288312031305159F28E9
:1001380083120313051121082902031DA52820088D
:1001480028020318C4282809B0002909B100B00AF8
:100158000319B10A20083007B20021080318210A40
:100168003107B30000303302333003193202031C65
:10017800C4283230A0020030031CA103A102EF28DA
:1001880029082102031DCA28280820020318E92883
:100198002009B0002109B100B00A0319B10A2808E2
:1001A8003007B20029080318290A3107B3000030C4
:1001B8003302333003193202031CE9283230A00716
:1001C8000318A10A0030A107EF282908A101A107F7
:1001D8002808A001A00723082B02031DF5282208E0
:1001E8002A02031814292A09B0002B09B100B00A01
:1001F8000319B10A22083007B20023080318230A9A
:100208003107B30000303302333003193202031CC4
:1002180014293230A2020030031CA303A3023F2991
:100228002B082302031D1A292A0822020318392938
:100238002209B0002309B100B00A0319B10A2A083B
:100248003007B2002B0803182B0A3107B30000301F
:100258003302333003193202031C39293230A20722
:100268000318A30A0030A3073F292B08A301A307FB
:100278002A08A201A20725082D02031D45292408E2
:100288002C02031864292C09B0002D09B100B00A0A
:100298000319B10A24083007B20025080318250AF3
:1002A8003107B30000303302333003193202031C24
:1002B80064293230A4020030031CA503A5028F294B
:1002C8002D082502031D6A292C08240203188929F0
:1002D8002409B0002509B100B00A0319B10A2C0895
:1002E8003007B2002D0803182D0A3107B30000307B
:1002F8003302333003193202031C89293230A40730
:100308000318A50A0030A5078F292D08A501A50700
:100318002C08A401A40727082F02031D95292608E5
:100328002E020318B4292E09B0002F09B100B00A13
:100338000319B10A26083007B20027080318270A4C
:100348003107B30000303302333003193202031C83
:10035800B4293230A6020030031CA703A702DF2904
:100368002F082702031DBA292E0826020318D929A7
:100378002609B0002709B100B00A0319B10A2E08EE
:100388003007B2002F0803182F0A3107B3000030D6
:100398003302333003193202031CD9293230A6073D
:1003A8000318A70A0030A707DF292F08A701A70706
:1003B8002E08A601A60721080F02031DE52920081B
:1003C8000E02031CF3294030B4001C30B500290884
:1003D8003506031DF12928083406031D8615230850
:1003E8000F02031DF92922080E02031C072A4030B8
:1003F800B6001C30B7002B083706031D052A2A084B
:100408003606031D051625080F02031D0D2A2408AC
:100418000E02031C1B2A4030B8001C30B9002D08FE
:100428003906031D192A2C083806031D85152708C7
:100438000F02031D212A26080E02031C6F284030D4
:10044800BA001C30BB002F083B06031D2D2A2E08BE
:100458003A0603196F2806146F288C1E912A18195A
:10046800372A981C3E2A05151A0818121816003043
:10047800F8058E2A78081A0600391A06F80078084E
:100488003F390038031D4B2AF601F7017B2A78080B
:100498003F39F000F1010630FF000310F00DF10DB7
:1004A800FF0B512A7008803EF60071080318013EC0
:1004B8000C3EF7007B2A7708A901A9077608A8014E
:1004C800A8078D2A7708AB01AB077608AA01AA0707
:1004D8008D2A7708AD01AD077608AC01AC078D2AE7
:1004E8007708AF01AF077608AE01AE078D2A780E00
:1004F800F000F00C700C0339003A03195F2A013A36
:100508000319662A033A03196D2A013A0319742A52
:100518008D2A6400831203138C127508FF00740877
:100528008A0073088400720E8300FE0E7E0E090096
:02400E005CFF55
:00000001FF
